:100000000C9434000C9451000C9451000C94510049
:100010000C9451000C9451000C9451000C9451001C
:100020000C9451000C9428010C9451000C94510034
:100030000C9451000C9451000C9451000C945100FC
:100040000C9451000C9451000C9451000C945100EC
:100050000C9451000C9451000C9451000C945100DC
:100060000C9451000C94510011241FBECFEFD8E026
:10007000DEBFCDBF11E0A0E0B1E0EEE0F4E002C0F1
:1000800005900D92A031B107D9F721E0A0E1B1E0D0
:1000900001C01D92A431B207E1F70E94FA000C944E
:1000A00005020C940000299A85E08A95F1F700007A
:1000B00029980895CF93C82F662311F0289A01C07C
:1000C0002898549A559A569A579A5F985E985D98D0
:1000D0005C98CC230CF45F9AC6FD5E9AC5FD5D9AD0
:1000E000C4FD5C9A0E9453005F985E985D985C988E
:1000F000C3FD5F9AC2FD5E9AC1FD5D9AC0FD5C9A28
:100100000E9453005C9A5D9A5E9A5F9A87EB9BE02F
:100110000197F1F700C00000CF91089560E00E94C0
:100120005A00089561E00E945A000895611104C0C8
:1001300080580E948E00089580540E948E00089579
:1001400081E00E948E00089561E00E945A000895A7
:10015000CF93DF93EC012196FC018081882329F065
:100160000E94A40089918111FBCFDF91CF91089566
:10017000CF93C82F209A559A219A549A559A569AF5
:10018000579A8FEF99EF0197F1F700C000005D9A41
:100190005C9A0E9453008FE19EE40197F1F700C042
:1001A00000000E9453008FEF90E00197F1F700C02C
:1001B00000000E9453008FEF90E00197F1F700C01C
:1001C00000005C980E9453008FEF90E00197F1F7D8
:1001D00000C0000088E20E948E0088E00E948E002D
:1001E0000E94A00086E00E948E008C2F0E948E004C
:1001F000CF9108958CE00E94B80060E081E00E94F9
:10020000960088E091E00E94A800E1EBF0E0808198
:1002100087608083E0E7F0E080818160808380E414
:100220000E948E00C0E0D1E008E011E089910E94B8
:100230009200C017D107D1F780E80E948E0060E0DD
:100240008EE00E94960080E00E94A4007894FFCF88
:100250001F920F920FB60F9211242F933F934F933B
:100260005F936F937F938F939F93AF93BF93EF931E
:10027000FF93CF93DF9300D0CDB7DEB780E290E25B
:100280009A838983809113018F5F863018F480935D
:10029000130171C010921301809112018F5F8A3097
:1002A00019F08093120122C0109212018091110165
:1002B0008F5F809311018C33C9F41092110160E0BB
:1002C00084E00E94960080E30E94A40080911001C7
:1002D0008F5F809310018C3349F41092100160E01D
:1002E00081E00E94960080E30E94A40080911201A8
:1002F0004AE0BE016F5F7F4F90E00E94D00160E056
:1003000087E00E949600CE0101960E94A80080918D
:1003100011018A3028F460E085E00E94960004C054
:1003200060E084E00E949600809111014AE0BE01E5
:100330006F5F7F4F90E00E94D001CE0101960E9436
:10034000A800809110018A3028F460E082E00E94C9
:10035000960004C060E081E00E9496008091100148
:100360004AE0BE016F5F7F4F90E00E94D001CE0156
:1003700001960E94A8000F900F90DF91CF91FF91FE
:10038000EF91BF91AF919F918F917F916F915F910D
:100390004F913F912F910F900FBE0F901F90189586
:1003A000BB274A3031F4992322F4BDE29095819520
:1003B0009F4F0C94DC01BB27FB015527AA27880F10
:1003C000991FAA1FA41710F0A41B83955051B9F7C9
:1003D000A05DAA3308F0A95DA193009779F7B11148
:1003E000B1931192CB010C94F501DC01FC01672F54
:1003F00071917723E1F7329704C07C916D937083FC
:0E0400006291AE17BF07C8F30895F894FFCFBE
:10040E0000000A1F1F0E040030303A30302E30002C
:00000001FF
