:100000000C9434000C943E000C943E000C943E0082
:100010000C943E000C943E000C943E000C943E0068
:100020000C943E000C943E000C943E000C943E0058
:100030000C943E000C943E000C943E000C943E0048
:100040000C943E000C943E000C943E000C943E0038
:100050000C943E000C943E000C943E000C943E0028
:100060000C943E000C943E0011241FBECFEFD8E04C
:10007000DEBFCDBF0E9440000C946B000C940000CA
:10008000259A2D982FEF85EA9EE0215080409040E0
:10009000E1F700C000002D9A2FEF85EA9EE0215085
:1000A00080409040E1F700C000002D982FEF85EAD6
:1000B0009EE0215080409040E1F700C000002D9A62
:1000C0002FEF81EF9BE2215080409040E1F700C08C
:0A00D00000002D98D7CFF894FFCF61
:00000001FF
