:100000000C9434000C943E000C943E000C943E0082
:100010000C943E000C943E000C943E000C943E0068
:100020000C943E000C943E000C943E000C943E0058
:100030000C943E000C943E000C943E000C943E0048
:100040000C943E000C943E000C943E000C943E0038
:100050000C943E000C943E000C943E000C943E0028
:100060000C943E000C943E0011241FBECFEFD8E04C
:10007000DEBFCDBF0E9440000C945B000C940000DA
:10008000259A2D983A9A42982FEF89E698E12150C7
:1000900080409040E1F700C000002D9A429A2FEF77
:1000A00089E698E1215080409040E1F700C00000CF
:0A00B0002D984298E9CFF894FFCF95
:00000001FF
